:020000040800F2
:10000000200A0020350200089120000893200008F3
:10001000972000089B2000089F2000080000000097
:10002000000000000000000000000000A320000805
:10003000A520000800000000A7200008A920000853
:100040004F0200084F0200084F0200084F0200084C
:100050004F0200084F0200084F0200084F0200083C
:100060004F0200084F0200084F0200084F0200082C
:100070004F0200084F0200084F0200084F0200081C
:100080004F0200084F0200084F0200084F0200080C
:100090004F0200084F0200084F0200084F020008FC
:1000A0004F0200084F0200084F0200084F020008EC
:1000B0004F0200084F0200084F0200084F020008DC
:1000C0004F0200084F0200084F0200084F020008CC
:1000D0004F0200084F0200084F020008AB20000842
:1000E0004F0200084F0200084F02000800F002F81B
:1000F00000F090F80AA090E8000C82448344AAF132
:100100000107DA4501D100F085F8AFF2090EBAE82F
:100110000F0013F0010F18BFFB1A43F0010318473B
:100120006CB000008CB00000103A24BF78C878C1D1
:10013000FAD8520724BF30C830C144BF04680C60ED
:10014000704700000023002400250026103A28BF35
:1001500078C1FBD8520728BF30C148BF0B60704739
:100160006E2906F01585702906F05F8666290AF06B
:100170001D8665290AF01A8667290AF01786612903
:100180000AF0168603681B0A28BF41F0800169291E
:1001900006F0C284642906F0BF84752906F0BC8489
:1001A0006F2906F0EC85782906F02B86E92906F000
:1001B0008785E42906F08485F52906F08185EF29F5
:1001C00006F0E985F82906F02A860368DB0928BFCE
:1001D00041F08001632907F0FD85732907F002864D
:1001E000E32907F00D86F32907F0128600207047F7
:1001F0001FB507F0A9F904000020002109F0E4FF71
:10020000401C60600020002109F0C8FFE0601FBDB5
:1002100010B510BD08F050F81146FFF7E9FF01F0E6
:100220000EFE08F0E1FA03B4FFF7F2FF03BC04F09E
:1002300070FD00000948804709480047FEE7FEE7D7
:10024000FEE7FEE7FEE7FEE7FEE7FEE7FEE7FEE786
:1002500004480549054A064B70470000AB210008D9
:10026000ED00000820040020200A002020060020C5
:100270002006002031490143314A1160704770B5B2
:10028000002100230F22C47804B32D4C246804F409
:10029000E064C4F5E064210AC1F10403CA40447873
:1002A00004FA03F18478144021430901254C0678AF
:1002B000A155047804F01F050124AC4005786D11A8
:1002C000AD0005F1E025C5F8004109E0047804F02F
:1002D0001F050124AC401C4D0678761145F82640D8
:1002E00070BD1A4A0A400243154B1B1F1A60704723
:1002F00039B1134A121D12680243114B1B1D1A60BB
:1003000006E00F4A121D126882430D4B1B1D1A6036
:100310007047042808D14FF0E021096941F0040139
:100320004FF0E022116107E04FF0E021096921F070
:1003300004014FF0E0221161704700000000FA054F
:100340000CED00E000E400E080E100E080FFFF1F32
:1003500010B50446CC48844208D10121042000F0A5
:100360002DFB0021042000F029FB46E0C748844211
:1003700008D10121082000F021FB0021082000F015
:100380001DFB3AE0C248844208D10121102000F050
:1003900015FB0021102000F011FB2EE0BD48844227
:1003A00008D10121202000F009FB0021202000F0CD
:1003B00005FB22E0B848844208D10121402000F02A
:1003C000FDFA0021402000F0F9FA16E0B34884421B
:1003D00008D10121802000F0F1FA0021802000F0F6
:1003E000EDFA0AE0AE48844207D10121801500F001
:1003F000E5FA0021A01500F0E1FA10BD10B50121C9
:10040000084600F0DBFA0021012000F0D7FA10BD09
:100410002DE9F0410246002500260020002300249B
:10042000002791F803C00CF00F0591F803C00CF001
:10043000100CBCF1000F03D091F802C04CEA050586
:1004400091F800C0BCF1000F31D0146800202BE0FF
:100450004FF0010C0CFA00F3B1F800C00CEA0306EF
:100460009E4220D183004FF00F0C0CFA03F7BC43DF
:1004700005FA03FC4CEA040491F803C0BCF1280F10
:1004800006D14FF0010C0CFA00FCC2F814C00AE0CF
:1004900091F803C0BCF1480F05D14FF0010C0CFAE4
:1004A00000FCC2F810C0401C0828D1D31460B1F879
:1004B00000C0BCF1FF0F34DD546800202EE000F1D5
:1004C000080C4FF0010808FA0CF3B1F800C00CEA70
:1004D00003069E4221D183004FF00F0C0CFA03F764
:1004E000BC4305FA03FC4CEA040491F803C0BCF1D8
:1004F000280F05D100F1080C08FA0CF8C2F8148096
:1005000091F803C0BCF1480F07D100F1080C4FF07F
:10051000010808FA0CF8C2F81080401C0828CED355
:100520005460BDE8F0814FF6FF71018002218170B7
:100530000421C17070470246002093680B400BB144
:10054000012000E0002070470146886880B27047B3
:1005500002460020D3680B400BB1012000E00020D0
:1005600070470146C86880B27047016170474161B9
:1005700070470AB1016100E041617047C160704796
:100580004FF480320A4382618161826182698269AB
:10059000704702460020434B18684FF6807318409E
:1005A00040EA021008433F4B186070473E49C8615B
:1005B0007047F0B50A46002300240021002500F012
:1005C0000046B6F1004F02D1364EF16901E0354EDA
:1005D0007168C0F3034583B200F44016B6F5401FBE
:1005E00008D121F070612F4E766826F070662D4F8D
:1005F0007E6012E000F48016B6F5801F06D1032657
:1006000006FA05F4A14341F0706106E0460D36019B
:1006100003FA06F6B14341F0706122B1460D36018E
:1006200003FA06F6314300F00046B6F1004F02D15E
:100630001C4EF16101E01B4E7160F0BD30B500222F
:100640008B071C0F0F2303FA04F2164B08338C1090
:1006500053F824309343134C08348D1044F825305C
:1006600023468C1053F824308C07240F00FA04F42E
:1006700023430C4C08348D1044F8253030BD0A4912
:10068000DC3108607047000000080140000C0140A8
:10069000001001400014014000180140001C0140FE
:1006A000002001400000014000002042DF480068B7
:1006B00040F00100DD49086008464068DC49084018
:1006C000DA49486008460068DA490840D7490860B6
:1006D0000846006820F4802008600846406820F43E
:1006E000FE0048604FF41F0088607047CF490968DA
:1006F00021F48031CD4A11601146096821F480212E
:100700001160B0F5803F03D0B0F5802F0ED106E028
:10071000C649096841F48031C44A116007E0C34901
:10072000096841F4A021C14A116000E000BF00BF88
:10073000704710B501460022002300204A11012A0B
:1007400002D1BA4C236806E0022A02D1B74C236AD0
:1007500001E0B64C636A01F01F02012494401C4082
:100760000CB1012000E0002010BD38B50020009041
:100770000024002500BF3120FFF7DBFF054600986D
:10078000401C00900098B0F5A06F01D0002DF2D071
:100790003120FFF7CEFF08B1012400E000242046FD
:1007A00038BD01460020A14A106820F0F80040EA58
:1007B000C10010607047A0490860704702460020E1
:1007C0009A4B586820F47C1042EA01031843974B77
:1007D0005860704798490866704701460020934A60
:1007E000506820F003000843506070478F4840680D
:1007F00000F00C007047014600208C4A506820F041
:10080000F00008435060704701460020874A506856
:1008100020F4E06008435060704701460020834A9E
:10082000506820F4605040EAC1005060704729B120
:100830007E4A527A02437D4B5A7204E07B4A527AD6
:1008400082437A4B5A7270477B49D83108607047AF
:1008500001460020754A506820F44040084350602B
:1008600070470021714A20321170704A82F82010BE
:10087000012802D004280AD104E001216B4A203269
:10088000117005E00521694A2032117000E000BFB7
:1008900000BF70476949086070476449096A0143AD
:1008A000624A11627047654944390860704730B543
:1008B00000210022002400235C4D6D6805F00C012E
:1008C00021B1042905D0082923D105E05C4D05603C
:1008D00022E05B4D05601FE0544D6D6805F4701219
:1008E000524D6D6805F48034022505EB92421CB927
:1008F000544D554305600BE04C4D6D6805F40035D3
:100900001DB1504D5543056002E04D4D5543056006
:1009100002E04B4D056000BF00BF444D6D6805F01F
:10092000F0010909484D6B5C0568DD4045603F4DAD
:100930006D6805F4E061090A434D6B5C4568DD4074
:1009400085603A4D6D6805F46051C90A3E4D6B5C97
:100950004568DD40C560354D6D6805F44041890B43
:100960003A4D6B5CC568B5FBF3F5056130BD29B147
:100970002E4A526902432D4B5A6104E02B4A5269B8
:1009800082432A4B5A61704729B1284A926902432F
:10099000264B9A6104E0254A92698243234B9A616F
:1009A000704729B1214AD2690243204BDA6104E041
:1009B0001E4AD26982431D4BDA61704729B11B4A36
:1009C000D2680243194BDA6004E0184AD2688243C5
:1009D000164BDA60704729B1144A12690243134B6F
:1009E0001A6104E0114A12698243104B1A61704780
:1009F00012494039086070470F49C86470470B4975
:100A0000C87170470948406A40F0807007494862E1
:100A1000704701460020054A92680A400AB1012049
:100A200000E00020704701498872704700100240C2
:100A30000000FFF8FFFFF6FE000042428004424241
:100A400000127A0000093D00000000201000002084
:100A500010B50446FE48844208D10121C014FFF7B6
:100A6000ADFF0021E014FFF7A9FFC4E0B4F1804F0F
:100A700008D101210846FFF7AEFF00210120FFF752
:100A8000AAFFB8E0F348844208D101210220FFF711
:100A9000A2FF00210220FFF79EFFACE0EE48844257
:100AA00008D101210420FFF796FF00210420FFF761
:100AB00092FFA0E0E948844208D101210820FFF715
:100AC0008AFF00210820FFF786FF94E0E448844273
:100AD00008D101211020FFF77EFF00211020FFF731
:100AE0007AFF88E0DF48844208D101212020FFF707
:100AF00072FF00212020FFF76EFF7CE0DA4884427D
:100B000008D101214014FFF759FF00216014FFF7BD
:100B100055FF70E0D548844209D10121C804FFF790
:100B20004DFF00214FF40020FFF748FF63E0D0485D
:100B3000844209D101210805FFF740FF00214FF44D
:100B40008010FFF73BFF56E0CA48844209D10121DB
:100B50004805FFF733FF00214FF40010FFF72EFF89
:100B600049E0C548844208D101214020FFF733FF06
:100B700000214020FFF72FFF3DE0C048844208D10C
:100B800001218020FFF727FF00218020FFF723FFAE
:100B900031E0BB48844208D101218015FFF71BFFDB
:100BA0000021A015FFF717FF25E0B648844209D1C0
:100BB00001210804FFF702FF00214FF48030FFF706
:100BC000FDFE18E0B048844209D101214804FFF736
:100BD000F5FE00214FF40030FFF7F0FE0BE0AB48CC
:100BE000844208D101218804FFF7E8FE00214FF478
:100BF0008020FFF7E3FE10BD00220288944B98424C
:100C00000ED0994B98420BD0B0F1804F08D0914B49
:100C1000984205D0904B984202D0904B984204D114
:100C20004FF68F731A404B881A438D4B984207D06A
:100C30008C4B984204D04FF6FF431A40CB881A439E
:100C400002808B8883850B880385814B98420BD06B
:100C5000854B984208D08B4B984205D08A4B9842DE
:100C600002D08A4B984201D10B7A038601238382FA
:100C7000704770B5002400220023058C4FF6FE76E5
:100C800035400584028C8388048B4FF68F752C4089
:100C9000B51E2C400D882C43751E2A400D892A4311
:100CA0004D882A436A4DA8420BD06F4DA84208D008
:100CB000744DA84205D0744DA84202D0734DA8428D
:100CC00013D14FF6F7752A404D892A434FF6FB752D
:100CD0002A408D882A434FF6FF652B404FF6FF557B
:100CE0002B408D892B43CD892B4383800483CD8872
:100CF0008586028470BD70B5002400220023058C17
:100D00004FF6EF7635400584028C8388048B48F6D5
:100D1000FF752C404FF6FF452C400D884FF6FF76AF
:100D200006EA05252C434FF6DF752A400D8906EAB1
:100D300005152A434D8806EA05152A43444DA84265
:100D400002D0494DA8421DD14FF67F752A404D89EA
:100D50004FF6FF7606EA05152A434FF6BF752A407F
:100D60008D8806EA05152A434FF6FF352B404FF2D2
:100D7000FF752B408D8906EA85052B43CD8906EA50
:100D800085052B4383800483CD880587028470BD4D
:100D900070B5002400220023058C4FF6FF66354015
:100DA0000584028C8388848B4FF68F752C404FF618
:100DB000FC752C400D882C434FF6FF552A400D89B9
:100DC0004FF6FF7606EA05252A434D8806EA0525F3
:100DD0002A431F4DA84202D0234DA8421DD14FF2F5
:100DE000FF752A404D894FF6FF7606EA05252A430E
:100DF0004FF6FF352A408D8806EA05252A434EF630
:100E0000FF752B404DF6FF752B408D8906EA0515C1
:100E10002B43CD8906EA05152B4383808483CD8837
:100E20008587028470BD70B5002200230024058CE4
:100E30004EF6FF7635400584038C8488828B48F615
:100E4000FF752A404FF6FF452A400D8820E000003C
:100E5000002C01400004004000080040000C00404D
:100E6000001000400014004000340140004C0140DC
:100E7000005001400054014000180040001C004098
:100E80000020004000400140004401400048014073
:100E90004FF6FF7606EA05252A434DF6FF752B40EF
:100EA0000D8906EA05352B434D8806EA05352B43A7
:100EB000FA4DA84202D0FA4DA84208D14BF6FF7570
:100EC0002C408D894FF6FF7606EA85152C438480E9
:100ED0008283CD88A0F84050038470BD828B4FF28E
:100EE000FF331A408283828B4FF6FF7303EA01239C
:100EF0001A4382837047F0B50C4615460022002144
:100F00000026078C4EF6FF7C07EA0C070784828BCD
:100F1000018C4FF6FF7707EA043640F6FF473A4068
:100F20004FF6FF7707EA05273A434FF6FF7707EAC0
:100F300003373A43D94FB8420ED0D94FB8420BD0FD
:100F4000B0F1804F08D0D74FB84205D0D64FB84245
:100F500002D0D64FB84206D14DF6FF77394046F45D
:100F60008057394305E047F6FF57394044F480572E
:100F7000394382830184F0BD828B4FF6F3731A40AC
:100F80008283828B0A4382837047F0B50C461546F4
:100F9000002200210026078C4FF6FF6C07EA0C07A1
:100FA0000784828B018C4FF6FF7707EA04264FF601
:100FB0000C773A404FF6FF7707EA03172F433A437F
:100FC000B64FB8420ED0B64FB8420BD0B0F1804FFA
:100FD00008D0B44FB84205D0B34FB84202D0B34F97
:100FE000B84206D14FF6FF57394046F4807739436F
:100FF00005E04FF2FF57394044F48077394382834C
:101000000184F0BD028B4FF2FF331A400283028B42
:101010004FF6FF7303EA01231A4302837047F0B5CA
:101020000C461546002200210026078C4FF6EF7C67
:1010300007EA0C070784028B018C4FF6FF7707EA5B
:10104000041640F6FF473A404FF6FF7707EA0337AA
:101050003A434FF6FF7707EA05273A438F4FB842E6
:101060000ED08F4FB8420BD0B0F1804F08D08D4FCB
:10107000B84205D08C4FB84202D08C4FB84206D14E
:101080004FF6DF77394046F01007394305E04FF659
:101090005F77394044F01007394302830184F0BD83
:1010A000028B4FF6F3731A400283028B0A430283CA
:1010B0007047F0B50C46154600220021068C4FF60D
:1010C000FE773E400684028B018C4FF60C76324050
:1010D0007E1C06EA03162E433243704EB0420ED0F9
:1010E0006F4EB0420BD0B0F1804F08D06D4EB04281
:1010F00005D06D4EB04202D06C4EB04206D14FF6D4
:10110000FD76314044F00106314305E04FF6F576B7
:10111000314044F00106314302830184F0BD70B5D3
:1011200005460C465D4885420ED05D4885420BD091
:10113000B5F1804F08D05B48854205D05A488542BA
:1011400002D05A48854200D100E000BF208850B943
:101150002389A28861882846FFF7ABFFE1882846EB
:10116000FFF79EFF25E0208804280AD12389A28862
:1011700061882846FFF753FFE1882846FFF742FFC2
:1011800017E0208808280AD12389A2886188284688
:10119000FFF7FBFEE1882846FFF7EEFE09E0238912
:1011A000A28861882846FFF7A6FEE1882846FFF757
:1011B00095FE70BD2DE9F04105460C46002601273D
:1011C000608808B9022600E00026A088012801D125
:1011D000022700E001272088A0B92389A28861881E
:1011E0002846FFF766FFE1882846FFF759FF238965
:1011F0003A4631462846FFF712FFE1882846FFF7B6
:1012000001FF13E02389A28861882846FFF707FFC2
:10121000E1882846FFF7F6FE23893A4631462846FC
:10122000FFF747FFE1882846FFF73AFFBDE8F08166
:101230000A884B881A438B881A43CB881A430B8938
:101240001A434B891A438B891A43A0F844207047EC
:101250004FF6FF71818000210180C18041800172C1
:1012600070470021018041808180C18001814181DE
:101270008181C181704700210180418001218180ED
:101280000021C1800181704700210180418081805F
:10129000C18001814181818170470000002C0140A3
:1012A000003401400004004000080040000C0040F1
:1012B00021B1028842F00102028004E002884FF668
:1012C000FE731A400280704731B1B0F8442042F4F6
:1012D0000042A0F8442005E0B0F84420C2F30E021A
:1012E000A0F8442070471AB183890B43838102E040
:1012F00083898B43838170478182704741EA02036F
:10130000A0F8483070471AB183890B43838102E00B
:1013100083898B438381704701894FF6F8721140AE
:10132000018170470A46002101894FF68F731940E9
:1013300011430181704730B504460D4629462046C9
:10134000FFF7F0FF208940F00700208130BD2DE934
:10135000F04104460D4616461F46602D06D13B4619
:10136000012231462046FFF75AFE05E03B460122A6
:1013700031462046FFF79DFE29462046FFF7D2FF63
:10138000208940F007002081BDE8F08130B50C468F
:1013900000210189C9B24FF6FF7505EA03251543FF
:1013A00025432943018130BD2DE9F04105460E4614
:1013B00017469846002443463A4631462846FFF7EA
:1013C000E5FF2C894FF6F870044044F007044FF60F
:1013D0008F70044044F070042C81BDE8F081F0B5BA
:1013E00004460D4616461F463B46324629462046D1
:1013F000FFF7CCFF208940F480402081F0BD0185BB
:10140000828270470A46002101884FF68F73194087
:10141000114301807047F0B50C4615461E46002169
:10142000002200230189028B038C4FF6F8773940A4
:1014300021434FF6FC473A4040F201173A434FF63A
:10144000DD773B404FF6FF7707EA06172F433B4314
:10145000018102830384F0BD0A460021018B4FF60F
:101460008F7319401143018370470A460021018B95
:1014700048F6FF7319404FF6FF7303EA022319433E
:10148000018370470A460021818B4FF68F73194004
:101490001143818370470A460021818B48F6FF7310
:1014A00019404FF6FF7303EA022319438183704703
:1014B00021B1028842F08002028004E002884FF6E7
:1014C0007F731A400280704721B1828842F0040283
:1014D000828004E082884FF6FB731A408280704756
:1014E00021B1828842F00802828004E082884FF6AF
:1014F000F7731A408280704721B1828842F001025E
:10150000828004E082884FF6FE731A408280704722
:101510000A460021018B4FF6F773194011430183EE
:1015200070470A460021018B4FF2FF7319404FF6B6
:10153000FF7303EA02231943018370470A4600211F
:10154000818B4FF6F77319401143818370470A4628
:101550000021818B4FF2FF7319404FF6FF7303EAAE
:1015600002231943818370470A460021018B4FF6FD
:10157000FB7319401143018370470A460021018B18
:101580004FF6FF3319404FF6FF7303EA0223194366
:10159000018370470A460021818B4FF6FB73194087
:1015A0001143818370470A460021818B4FF6FF3338
:1015B00019404FF6FF7303EA0223194381837047F2
:1015C0000A460021018B4FF67F73194011430183B6
:1015D00070470A460021018BC1F30E014FF6FF73DD
:1015E00003EA02231943018370470A460021818BD5
:1015F0004FF67F7319401143818370470A460021DB
:10160000818BC1F30E014FF6FF7303EA02231943E6
:10161000818370470A460021018C4FF6FD73194003
:101620001143018470470A460021018C4FF6F7737D
:1016300019401143018470470A460021018C4FF67E
:10164000DF7319404FF6FF7303EA02131943018455
:1016500070470A460021018C4FF67F7319404FF600
:10166000FF7303EA02131943018470470A460021FD
:10167000018C4FF6FF5319404FF6FF7303EA022324
:101680001943018470470A460021018C4FF2FF7311
:1016900019404FF6FF7303EA022319430184704790
:1016A0000A460021018C4DF6FF7319404FF6FF7377
:1016B00003EA023319430184704730B50023012443
:1016C0008C40A3B2048C9C430484048C02FA01F580
:1016D000ADB22C43048430BD30B5002304248C40CB
:1016E000A3B2048C9C430484048C02FA01F5ADB2CD
:1016F0002C43048430BD70B50346002000241846F6
:10170000183001258D40ACB21D8CA5431D8409B154
:10171000082909D100EB6100056825F07005056016
:101720000568154305600EE00D1FC5F34E052844FE
:10173000056825F4E045056005684FF6FF7606EA82
:1017400002263543056070BD21B1028842F00202D5
:10175000028004E002884FF6FD731A400280704751
:1017600021B1028842F00402028004E002884FF6B0
:10177000FB731A400280704721B1828842F08002D8
:10178000828004E082884FF67F731A40828070471F
:1017900002884FF6F7731A40028002880A430280DB
:1017A000704782884FF68F731A40828082880A437E
:1017B0008280704702894FF6F8731A4002810289CD
:1017C0000A430281704702894FF67F731A400281F3
:1017D00002890A430281704781847047818570477E
:1017E000818670470187704781877047A0F8401055
:1017F000704702884FF6FF431A40028002880A436E
:10180000028070470146888E70470146088F7047F6
:101810000146888F70470146B1F840007047014685
:10182000888C70470146088D704702460020138A55
:101830000B400BB1012000E000207047CA43028238
:10184000704730B50246002000230024158A05EABF
:101850000103958905EA010413B10CB1012000E0F0
:10186000002030BDCA4302827047000010B5044614
:10187000FB48844209D101218803FFF79FF800212A
:101880004FF48040FFF79AF832E0F648844209D1DD
:1018900001214804FFF79FF800214FF40030FFF7C3
:1018A0009AF825E0F048844209D101218804FFF725
:1018B00092F800214FF48020FFF78DF818E0EB48F4
:1018C000844209D10121C804FFF785F800214FF4B3
:1018D0000020FFF780F80BE0E548844208D10121A1
:1018E0000805FFF778F800214FF48010FFF773F830
:1018F00010BD2DE9F04786B005460E460024A246ED
:1019000000BFA1460027B08900B100BF2F462C8A36
:101910004CF6FF700440F08804432C82AC894EF6EC
:10192000F3100440B08831890843718908430443A7
:10193000AC81AC8A4FF6FF400440B0890443AC82CE
:1019400001A8FEF7B4FFC648874202D1DDF810A017
:1019500001E0DDF80CA0A88900F4004040B10AEBDA
:10196000CA0000EB0A1031684900B0FBF1F807E04B
:101970000AEBCA0000EB0A1031688900B0FBF1F8ED
:101980006420B8FBF0F004012009642101FB1089F8
:10199000A88900F4004040B1322000EBC900B0FB40
:1019A000F1F000F00700044308E0322000EB0910DA
:1019B0006421B0FBF1F000F00F0004432C8106B06D
:1019C000BDE8F0874FF41651016000218180C1808D
:1019D00001810C21418100218181704710B50246AF
:1019E0000020108A4FF2FF0318400B884C882343D5
:1019F0008C882343CC8823431843108210BD0021D8
:101A0000018041808180C180704721B1828942F488
:101A10000052828104E082894DF6FF731A40828170
:101A20007047F0B50346002400260025002040F64C
:101A30006A17B94200D100BF1846C1F3421401F041
:101A40001F06012707FA06F5012C01D10C3004E02E
:101A5000022C01D1103000E014301AB107682F4376
:101A6000076002E00768AF430760F0BD1AB1838AE0
:101A70000B43838202E0838A8B4383827047028A0E
:101A80004FF6F0731A400282028A0A4302827047BC
:101A900082894FF2FF731A40828182890A438281D0
:101AA000704721B1828942F00202828104E082897A
:101AB0004FF6FD731A4082817047028A4FF6DF733A
:101AC0001A400282028A0A430282704721B1028AC6
:101AD00042F48042028204E0028A4BF6FF731A400D
:101AE00002827047C1F308028280704701468888ED
:101AF000C0F308007047818941F00101818170477E
:101B0000028BD2B20283028B42EA01220283704727
:101B1000028B02F47F420283028B0A4302837047E6
:101B200021B1828A42F02002828204E0828A4FF64A
:101B3000DF731A408282704721B1828A42F010021C
:101B4000828204E0828A4FF6EF731A4082827047E5
:101B500021B1828A42F00802828204E0828A4FF632
:101B6000F7731A408282704721B1828942F40042A1
:101B7000828103E08289C2F30E028281704721B123
:101B8000828A42F40062828204E0828A4FF2FF730A
:101B90001A4082827047828A4FF6FB731A40828213
:101BA000828A0A438282704721B1828A42F002020D
:101BB000828204E0828A4FF6FD731A408282704767
:101BC00002460020B1F5007F00D100BF13880B4012
:101BD0000BB1012000E00020704701F40072B2F563
:101BE000007F00D100BFCA430280704770B5024633
:101BF000002400230025002040F66A16B14200D1DF
:101C000000BFC1F3421501F01F03012606FA03F3DA
:101C1000012D02D19689334006E0022D02D1168AA9
:101C2000334001E0968A33400C12012606FA04F490
:101C30001688344013B10CB1012000E0002070BDC3
:101C400010B50022002340F66A14A14200D100BF63
:101C50000A1201249440A3B2DC43048010BD0000AA
:101C6000003801400044004000480040004C004063
:101C70000050004010B59FA003F056F8A7A003F055
:101C800053F8B0A003F050F8B8A003F04DF8BEA090
:101C900003F04AF8CCA003F047F810BD2DE9F04F4F
:101CA00097B08346002004F062FD0446012004F052
:101CB0005EFD8146022004F05AFD82462CB1B9F146
:101CC000000F02D0BAF1000F02D117B0BDE8F08FBB
:101CD000606C08F0D7FBCDE91401E06B08F0D2FB93
:101CE000CDE91201206D08F0CDFB05460E46E06CF3
:101CF00008F0C8FBCDE91001A06C08F0C3FBCDE9EA
:101D00000E01584608F0BEFB07468846DDE914017F
:101D1000CDE90C01206C0A90DDE91201CDE90656EF
:101D2000CDE90801DDE91001CDE90401DDE90E018D
:101D3000CDE9020120783A4643460090B1A002F076
:101D4000F3FFD9F8440008F09DFB05460E46D9F88C
:101D50003C0008F097FB07468846D9F8500008F089
:101D600091FBCDE91401D9F84C0008F08BFBCDE9CB
:101D70001201D9F8480008F085FBCDE9100158465A
:101D800008F080FBCDE90C56CDE90E01D9F84000F2
:101D9000CDE908780A90DDE91401CDE90601DDE915
:101DA0001201CDE90401DDE91001CDE9020199F844
:101DB000000000909EA0DDE90E2302F0B5FFDAF8E6
:101DC000440008F05FFB07468846DAF83C0008F05C
:101DD00059FBCDE91401DAF8500008F053FB054631
:101DE0000E46DAF84C0008F04DFBCDE91201DAF8A6
:101DF000480008F047FBCDE91001584608F042FBC7
:101E0000CDE90C78CDE90E01DAF840000A90DDE961
:101E10001401CDE90656CDE90801DDE91201CDE94D
:101E20000401DDE91001CDE902019AF800000090FB
:101E30008AA0DDE90E2302F077FF00BF45E71CB55D
:101E400000260024002590A0006801908EA0006864
:101E5000009000F0AAF94FF4A060FEF70BFA01F031
:101E600069FB0746002141F61F4001F069FE01F0C1
:101E7000CFFD01F0C2FE01F099FF0022114610468D
:101E800001F0E0FD4FF4E13002F0D9FE04F084FAF5
:101E900000F0F3FAFFF7EEFE00F01EFB28E003F07F
:101EA000EDFC6A4601A9384600F04DFF694601A8DD
:101EB00000F0CFFF754804F057FB7449304608F036
:101EC0000DFB0646601CC4B2022C03D3002430462E
:101ED000FFF7E4FE681CC5B20A2D02D3002500F00E
:101EE000FBFA0A2001F07BFD03F0F4FC00F0E5FAB8
:101EF000D5E70000494D55315F4845414445522CD6
:101F0000742C6F2C722C702C792C74656D702C7065
:101F1000726573732C616C740D0A0000494D553263
:101F20005F4845414445522C742C6F2C722C702C08
:101F3000792C74656D702C70726573732C616C7480
:101F40000D0A0000494D55335F4845414445522C28
:101F5000742C6F2C722C702C792C74656D702C7015
:101F6000726573732C616C740D0A00004354524CFB
:101F70005F4845414445522C636D642C666F726D19
:101F800061740D0A000000004354524C2C4A2C6628
:101F90006565642C782C793B20502C542F582F4F9A
:101FA0002F533B20533B20453B20412C302F313BCE
:101FB00020472C302E2E3130302F4F2F432F533BC4
:101FC00020483B20510D0A0041524D5F4845414495
:101FD00045522C656E61626C65642C6573746F701C
:101FE0002C677269707065722C67726970706572A7
:101FF0005F6469722C686F6D655F70656E64696E91
:10200000670D0A00494D55312C252E33662C256469
:102010002C252E32662C252E32662C252E32662C4F
:10202000252E32662C256C642C252E32660D0A0076
:10203000494D55322C252E33662C25642C252E3205
:10204000662C252E32662C252E32662C252E3266E5
:102050002C256C642C252E32660D0A00494D553313
:102060002C252E33662C25642C252E32662C252E0D
:1020700032662C252E32662C252E32662C256C6479
:102080002C252E32660D0A007F8000000AD7233CE3
:10209000704700BFFEE700BFFEE700BFFEE700BFDE
:1020A000FEE7704770477047704710B540F2255102
:1020B0000548FFF79BFD30B10348FFF717FDC4B299
:1020C000204602F045FE10BD004800400CB500203F
:1020D000019000906C48006840F480306A490860C4
:1020E00000BF6948006800F4003000900198401C6F
:1020F0000190009818B90198B0F5A06FF1D162482D
:10210000006800F4003010B10120009001E00020D0
:1021100000900098012843D15C48006840F010000E
:102120005A4908600846006820F003000860084625
:10213000006840F002000860534840685249486017
:102140000846406848600846406840F4806048603F
:102150000846406820F47C1048600846406840F417
:10216000E81048600846006840F08070086000BFD2
:102170004548006800F000700028F9D042484068E7
:1021800020F00300404948600846406840F00200E3
:10219000486000BF3C48406800F00C000828F9D1B6
:1021A0000CBD10B5FFF792FF10BD10B536480068A2
:1021B00040F001003449086008464068344908404E
:1021C0003149486008460068324908402E49086095
:1021D0000846006820F4802008600846406820F423
:1021E000FE0048604FF41F008860FFF7DAFF4FF0F1
:1021F00000602949086010BD10B5002100200022B0
:10220000214B5B6803F00C0121B1042906D0082999
:1022100028D107E0214B224C236027E01F4B204CA4
:10222000236023E0184B5B6803F47010164B5B6867
:1022300003F48032022303EB904022B9194B43434D
:10224000174C23600DE0104B5B6803F4003323B19F
:10225000144B4343124C236003E0104B4343104C98
:10226000236003E00D4B0E4C236000BF00BF064B04
:102270005B68C3F303130C4CE15C094B1B68CB4058
:10228000074C236010BD00000010024000200240F7
:102290000000FFF8FFFFF6FE08ED00E000127A00F4
:1022A0001400002000093D001800002001467E298E
:1022B00003D3822901D8802070470846FCE70346F3
:1022C000934201DD104670478B4201DA0846FAE777
:1022D0001846F8E770B506460D46144621463046C6
:1022E00008F0F8FB01D2204670BD2946304608F0C0
:1022F000F1FA01D22846F7E73046F5E770B5044613
:10230000204608F0BBFA0646FE4908F05BF9054690
:102310004FF07E52FC492846FFF7DCFF70BD2DE9E7
:10232000FE4F0446884615464FF07E590294002120
:10233000204608F0CFFA04D2DFF8CC9384F00040B6
:1023400002904146029808F0C5FA02D80020BDE884
:10235000FE8F41464FF07E5008F0B0FC8246414669
:10236000029808F0ABFC8346514608F02BF906466C
:102370003146284608F0E2FA3146009008F0DEFACD
:102380003146019008F0DAFA824629464FF07E5035
:1023900008F094FC3146019008F0D0FA834651468B
:1023A00008F09CF807463946484608F0C7FACEE7D9
:1023B00070B504460021204608F08CFB08D84FF089
:1023C0007C51204608F08AF8054608F0F1F970BD06
:1023D0004FF07C51204608F071FC054608F0E8F902
:1023E000F5E710B50421C948FEF7C1F80821C74830
:1023F000FEF7BDF80020C6490870C649087010BD38
:1024000010B50446642200212046FFF758FFC24958
:102410000870FFF7E6FFC04800783C280AD3042183
:10242000BA48FEF7A2F80120BA4908703220B8492C
:1024300008700DE0B8480078282809D80821B3486A
:10244000FEF793F8FF20B34908703220B0490870B6
:1024500010BD10B50020B14908700120B0490870C6
:102460000020B0490870FFF7BCFF01F09FFC00227C
:102470001146104601F0E6FA10BD08B50121092009
:10248000FEF782FA0121A848FEF793F810208DF894
:10249000030003208DF802000420ADF80000694617
:1024A0009A48FDF7B5FF0820ADF800006946974847
:1024B000FDF7AEFFFFF795FF08BD10B59448007813
:1024C00048B193480078401E91490870084600784A
:1024D00008B9FFF786FF10BD1CB5924800788D49FA
:1024E00091F90010CDE900108B4803788C480278F0
:1024F0008A4801788DA002F017FC1CBDFEB50020B3
:102500000290019000906A4601A902A801F031FCF6
:10251000029808F0B3F906468A480168304608F088
:102520000DFA0546784908F009FA0446864801681C
:10253000204607F0D3FF85490860019808F09EF90E
:10254000064683480168304608F0F8F905466E49AA
:1025500008F0F4F904467F480168204607F0BEFF02
:102560007D490860009808F089F906467B480168B3
:10257000304608F0E3F90546634908F0DFF9044600
:1025800077480168204607F0A9FF76490860FEBD3C
:102590002DE9F0477448007810B90020BDE8F087B5
:1025A000FFF7ACFF694801687048006808F086FBD7
:1025B0000446694801686E48006808F07FFB0546DC
:1025C000684801686B48006808F078FB064624F00C
:1025D000004A69480168504608F07CF900D200249E
:1025E00025F0004A64480168504608F073F900D2AB
:1025F000002526F0004A60480168504608F06AF954
:1026000000D200260021204608F09EF812D10021B9
:10261000284608F099F80DD10021304608F094F8CA
:1026200008D100221146104601F0E2FB00204E497D
:102630000870B3E721465148006808F07FF98246E8
:1026400008F0B6F8814629464C48006808F076F94B
:10265000824608F0ADF8074631464848006808F061
:102660006DF9824608F0A4F8804645480268006883
:1026700041424846FFF723FE814641480268006810
:1026800041423846FFF71BFE07463D480268006896
:1026900041424046FFF713FE8046424639464846CF
:1026A00001F0A6FB012079E72DE9F0438DB0354814
:1026B0000088401C3349088008460088322802D22E
:1026C0000DB0BDE8F08300202E490880FFF716FF0B
:1026D0000AAA0BA90CA801F059FB2248006807F0D0
:1026E000D1FE04460D461C48006807F0CBFE0646A6
:1026F0000F461648006807F0C5FE804689461A480E
:10270000007841E00000FE42000080BF000C014064
:102710005100002052000020500000204D000020F9
:102720004E0000204F0000200002300041524D2C8E
:1027300025642C25642C25642C25642C25640D0A25
:102740000000000040000020280000206000002061
:10275000440000202C0000206400002048000020DD
:1027600030000020680000205300002054000020AA
:10277000580000205C0000203800002034000020B9
:102780003C0000206C000020BDF92810BDF92C2071
:10279000BDF93030CDE90089CDE90267CDE90445C6
:1027A000CDE90632CDE9081000221346FAA002F066
:1027B000BBFA00BF84E72DE9F04104460D461646FA
:1027C000642251422046FFF77AFD0446C4EBC41050
:1027D000642190FBF1F006FB0057FF2200213846F0
:1027E000FFF76DFDC0B2BDE8F08170B505460C463F
:1027F0000021204608F06EF801D8002070BD04E0EA
:102800002146284608F05AFA05462146284608F08F
:1028100061F9F5D92846F1E70146012906D00229D8
:1028200006D0032906D0042909D106E0E448704700
:10283000E448FCE74FF08140F9E7E348F7E7002080
:10284000F5E70146632925D00EDC532924D006DCA8
:1028500043291ED04F291AD0512922D11EE05429D4
:102860000FD058291DD10FE0732916D004DC6F2931
:102870000ED0712915D112E0742903D0782910D116
:1028800003E000BF0120704700BF0220FBE700BF4C
:1028900000BF00BF0320F6E700BF00BF00BF042059
:1028A000F1E70020EFE770B504460D4604B970BDAE
:1028B0002570002060602846FFF7AEFFA06000BFD3
:1028C000F5E700B97047002101704160816000BFE9
:1028D000F8E72DE9FF5F07460C4615469B46BB4EC1
:1028E00027B11CB115B1BBF1000F01D1BDE8FF9FAD
:1028F0000020CBF800003878012806D0022838D014
:1029000003287DD004287CD1ADE0DFF8C4A2514675
:10291000B04808F013F8029078680299FFF765FF55
:1029200080465146404607F0D5FF02D24FF00009DD
:102930000EE051464FF0804008F000F8414602900A
:1029400008F0C8F802D2DFF8909201E0DFF88C922C
:10295000484606F015FF3146029007F0EFFF206071
:10296000484607F041FB3146029007F0E7FF286038
:10297000B6E0DFF86CA251464FF0814007F0DEFF71
:10298000029078680299FFF730FF80465146404632
:1029900007F0A0FF0AD29349304607F0CFFF20602E
:1029A0009049304607F0CAFF28603DE051464FF09D
:1029B000804007F0C3FF4146029008F08BF80ED22A
:1029C00086F000408749029007F0B8FF206086F04B
:1029D00000408449029007F0B1FF286024E051468E
:1029E0007C4807F0ABFF4146029008F073F80FD225
:1029F00086F000407B49029007F0A0FF206001E0D4
:102A000013E069E07749304607F098FF28600BE053
:102A10007449304607F092FF206086F0004071490B
:102A2000029007F08BFF28605AE06F4803907968A6
:102A3000039807F083FF009007F0D6FA029086F023
:102A400000400190029907F079FF206079680398AF
:102A500007F074FF019006F093FE3146029007F0F4
:102A60006DFF28603CE0DFF868A151464FF08140DF
:102A700007F064FF029078680299FFF7B6FE80467F
:102A80005146404607F026FF03D22660002028600A
:102A900021E051464FF0804007F050FF4146029040
:102AA00008F018F803D2002020602E6013E0514691
:102AB000484807F043FF4146029008F00BF805D262
:102AC00086F0004020600020286004E000202060A4
:102AD00086F00040286003E000202060286000BFEE
:102AE00000BF00BF02E72DE9F047074688461546BC
:102AF0001C46089E0DB104B10EB9BDE8F0874FF039
:102B00007C51384607F01AFF8146414607F0E2FE45
:102B10001ED84FF03F41384607F010FF814641462E
:102B200007F0D8FE14D2002028603049384607F05C
:102B300005FF8146414607F0D1FC20602B4938460D
:102B400007F0FCFE8146414608F026F8306062E05E
:102B50004FF03F41384607F0F1FE8146414607F00D
:102B6000B9FF47D80021384607F0B4FE42D287F0BB
:102B700000491F49484607F0E1FE30600020206010
:102B80004FF07C50316807F0D9FE8146414608F08D
:102B900095F828603FE00000524F442C252E326605
:102BA0002C252E31662C252E31662C252E31662CB7
:102BB00025642C25642C25642C25640D0A00000056
:102BC000CCCC2C409A991940666666406666263FD2
:102BD0006666663F00004040910A0640910A8640C2
:102BE0009A99193FF304353FDA0FC93F3ACD133FA5
:102BF0003ACD933FF749384607F0A0FE2060002009
:102C000030604FF07C50216807F098FE81464146C5
:102C100008F054F8286000BF6FE770B502F0CAFEF4
:102C200008B1FFF716FC02F07DFE044654B90020FF
:102C3000E949087001F0BAF800221146104600F088
:102C400001FF12E0002C06DDE448007818B90120ED
:102C5000E149087009E0002C07DD0020DF49087019
:102C60000120DD49087001F0A1F802F0A9FE054637
:102C7000002D05DBD948007810B9E8B2FFF7C0FB9A
:102C800002F0A6FE10B10120D549087002F0A6FEA0
:102C900008B1FFF721FCD348007800B970BD0120CE
:102CA00000F045FD30B1042000F041FD10B1FFF708
:102CB000D0FBF3E7042000F03AFD60B10A2000F0F9
:102CC00045FD40B10020C54908700120C249087087
:102CD00001F06CF8E2E7092000F038FD50B1002067
:102CE000BD49087001F062F800221146104600F05C
:102CF000A9FE09E00A2000F029FD28B1B7480078B4
:102D000010B90120B4490870B4480078C8B90B2044
:102D100000F01CFD18B16420FFF772FB06E00C20E8
:102D200000F014FD10B10020FFF76AFB022000F054
:102D3000FEFC30B1032000F0FAFC10B10120A849DC
:102D4000087000BFAAE72DE9FE4306460D4614466B
:102D50000027002002900190009005B10CB9BDE859
:102D6000FE837F202870802068707F202070802064
:102D700060700EB9012000E000209A4908700846F2
:102D8000007878B300F083FC0746072000F0FAFCD7
:102D90008046FFF78BFA2870082000F0F3FC80468D
:102DA000FFF784FA6870052000F0ECFC8046FFF71E
:102DB0007DFA2070062000F0E5FC8046FFF776FAE9
:102DC0006070052F0BD0062F06D0072F0BD0082FD1
:102DD0000CD1002020700AE0FF20207007E00020C6
:102DE000607004E004E0FF20607000E000BF00BFFE
:102DF0006A4601A902A802F076FDC0B17F202870C2
:102E00004FF0FF3280219DF90800FFF7D4FC687075
:102E100001227F219DF90400FFF7CDFC20704FF0C7
:102E2000FF3280219DF90000FFF7C5FC6070FFF7BD
:102E3000F4FE6948007810B16848007838B17F2006
:102E40002870802068707F2020708020607000BF14
:102E500085E72DE9F04F97B007460C464FF0000884
:102E6000002009900890079007B114B917B0BDE889
:102E7000F08F5B480078B8B10020594908705A4972
:102E800008605A4908605A4908605A4908705A4807
:102E9000FFF717FD00F08AFF00221146104600F0F0
:102EA000D1FDFFF719FBE1E74B48007810B14B4823
:102EB000007888B100204C4908604C4908604C49B2
:102EC00008604C4908704C48FFF7FBFC0022114693
:102ED000104600F08DFFC9E77878C0F180000F90B0
:102EE00020787F380E906078C0F180000D900F98A8
:102EF000FFF704FA414A42490490FFF710FA0C9098
:102F00000E98FFF7FBF93D4A3D490490FFF707FA99
:102F10000B900D98FFF7F2F9384A39490490FFF702
:102F2000FEF90A9000210C9807F00EFC0BD100214D
:102F30000B9807F009FC06D100210A9807F004FC61
:102F400001D1012000E00020059002AA03A904A8F5
:102F500002F04AFD58B12B49049808602A490398A9
:102F600008602A49029808600120224908700598E3
:102F700010B900201F4908701E48007820B1FFF7E3
:102F800007FBFFF791FB71E7FFF78EFB02F0C4FC34
:102F900016900598E0B31698FFF753FC8046B8F1F9
:102FA000000F3CD10F48007890B30D2000F0CEFB0D
:102FB00010B14FF0010832E00F2000F0C7FB10B154
:102FC0004FF002082BE00E2000F0C0FB08B34FF0DA
:102FD000030824E03ACD933F4D0000204E0000202E
:102FE0004F0000204C0000207000002074000020E2
:102FF0007800002053000020F8000020CDCC0C3FCA
:103000000AD7A33D54000020580000205C00002097
:1030100005E0102000F09AFB08B14FF00408B8F169
:10302000000F03D04146A248FFF73DFCA0480078BE
:10303000D8B1059818B99E48FFF743FC15E00CABD2
:103040000AAA0BA99A48FFF744FC9949486899498C
:1030500007F044FA964948600A469168506807F0BC
:1030600039FD02D89248FFF72CFC07A808AB09AA43
:103070000090DDE90A10FFF736FD099820F0004ABC
:10308000089820F000405146049007F023FD02D23A
:10309000089820F0004A079820F00040514604901C
:1030A00007F018FD02D2079820F0004A4FF07E5139
:1030B000504607F00FFD0ED25146099807F082FAEC
:1030C00009905146089807F07DFA089051460798F4
:1030D00007F078FA079078490C9807F02FFC7749A9
:1030E0000490099807F02AFC0390049907F0F6F978
:1030F000814671490C9807F021FC704904900898AA
:1031000007F01CFC0390049907F0E8F905466A49AA
:103110000C9807F013FC69490490079807F00EFC1F
:103120000390049907F0DAF9064629F0004B25F0E0
:1031300000405946049007F0CDFC01D225F0004B29
:1031400026F000405946049007F0C4FC01D226F056
:10315000004B5B49584607F0BDFC13D2594658480E
:1031600007F030FA06904846069907F0E7FB8146DB
:103170002846069907F0E2FB05463046069907F017
:10318000DDFB06464846FFF713F915902846FFF782
:103190000FF914903046FFF70BF913904FF4E152FA
:1031A00051421598FFF78BF815904FF4E1525142B8
:1031B0001498FFF784F814904FF4E1525142139899
:1031C000FFF77DF81390159880B9149870B913988B
:1031D00060B900203B4908603B4908603B490860F2
:1031E00000221146104600F003FE5EE0159807F03D
:1031F00045FB3749019007F0A1FB02903148016877
:10320000029807F05BFD3349039007F097FB0490A9
:103210002C480168049807F061F92A49086014985D
:1032200007F02CFB2A49019007F088FB0290264802
:103230000168029807F042FD2649039007F07EFBE3
:10324000049021480168049807F048F91E49086075
:10325000139807F013FB1E49019007F06FFB0290D3
:103260001A480168029807F029FD1A49039007F0EF
:1032700065FB049015480168049807F02FF913497D
:10328000086010480068FFF793F812900E48006835
:10329000FFF78EF811900D480068FFF789F810903D
:1032A000DDE91021129800F0A3FD00BFDEE500006B
:1032B000F80000200AD7233C000016450040834553
:1032C0000000E1457000002074000020780000201C
:1032D000CDCC4C3C3333B33E38B50446012000908E
:1032E0000020FB494870012000902DE0BDF800004F
:1032F000204018B10120F749086002E00020F5499C
:1033000008600A2000F054FB0020F24908310860F0
:10331000282000F04DFB0120EF49C1F8BC01ED4829
:103320008438006830B1EA484078BDF8001008439E
:10333000E74948700A2000F03BFBBDF800004FF65B
:10334000FF7101EA40000090BDF80000FF28CDDDCC
:1033500038BD10B50020DF49091D0860DF49087835
:10336000FFF7BAFFDD494878FFF7B6FF0120DA49D9
:10337000C1F8B801D6484078732801D1002010BDAB
:103380000120FCE710B50020D249091D0860322059
:1033900000F00EFB0120FFF79FFF4320FFF79CFF8B
:1033A0000020FFF799FF0020FFF796FF5A20FFF754
:1033B00093FF5A20FFF790FF5A20FFF78DFF5A2006
:1033C000FFF78AFF5A20FFF787FF0120C249C1F8A3
:1033D000B801322000F0ECFA10BD10B50020BD4954
:1033E000091D0860322000F0E3FA0120FFF774FFA6
:1033F0004D20FFF771FF0020FFF76EFF0020FFF761
:103400006BFF0120FFF768FF0120B349C1F8B80145
:10341000322000F0CDFA10BD10B50020AD49091DD5
:103420000860322000F0C4FA0120FFF755FF442065
:10343000FFF752FF0020FFF74FFF0120FFF74CFF7F
:103440000320FFF749FF0020FFF746FF0020FFF7AA
:1034500043FF0020FFF740FF0020FFF73DFF012062
:103460009D49C1F8B801322000F0A2FA10BD10B594
:1034700000209849091D0860322000F099FA0120C7
:10348000FFF72AFF4320FFF727FF0020FFF724FF65
:103490000120FFF721FF0020FFF71EFF0020FFF7AC
:1034A0001BFF0020FFF718FF0020FFF715FF00208B
:1034B000FFF712FF01208849C1F8B801322000F05F
:1034C00077FA10BD10B500208249091D086032202E
:1034D00000F06EFA0120FFF7FFFE4220FFF7FCFE2E
:1034E0000020FFF7F9FE0020FFF7F6FE0020FFF7AF
:1034F000F3FE01207849C1F8B801322000F058FAF3
:1035000010BD10B5642000F06AFAFFF7DBFFFFF78B
:10351000D9FFFFF7D7FFFFF7AAFFFFF77DFFFFF700
:103520005CFFFFF72FFFFFF714FF08B9002010BD65
:103530000120FCE738B501210820FDF725FA4FF4FA
:103540008050ADF8000004208DF8030069466448FF
:10355000FCF75EFF4FF46040ADF8000010208DF8DE
:10356000030003208DF8020069465D48FCF750FF18
:1035700005215C4800F066F905215B4800F062F91E
:1035800005215A4800F05EF90521594800F05AF922
:10359000FFF7B7FF0446204638BD70B504460D4618
:1035A00034B1012C09D0022C0CD0032C14D10EE024
:1035B00029464C4800F05AF970BD29464A4800F0A7
:1035C00055F9F9E72946494800F050F9F4E729464A
:1035D000474800F04BF9EFE72846EDE71CB500201F
:1035E0003C49091D08600A2000F0E2F93B490878CF
:1035F000FFF772FE39494878FFF76EFE022001900E
:1036000032E00120009023E00020324908310860B8
:10361000322000F0CDF901202F49C1F8BC012D481E
:103620008438006850B12A489DF80410405CBDF809
:103630000010084326499DF8042088542D2000F0EE
:10364000B7F9BDF800004FF6FF7101EA40000090A5
:10365000BDF80000FF28D7DD0A2000F0A9F99DF889
:103660000400401CC0B201909DF804000928C8DB8A
:1036700001201849091D08601CBD002004E000213C
:10368000134A1154411CC8B20928F8DB704710B521
:10369000FFF7F3FFFFF7A2FF1648008816490880DE
:1036A0000B48C0780A49097940EA0120114908808D
:1036B000002427E0114810F81400401E012101FAEF
:1036C00000F00C4909880840D0B9601CC0B210BD98
:1036D00004010020B4812142008021427E000020AC
:1036E000000C01400E0100201E0100202E010020D0
:1036F0003E0100207C000020A0000020800000206F
:10370000601CC4B2102CD5DB002010BD0146481E41
:103710000122824091B246480088464A12885040B1
:103720000840002801DD012070470020FCE7014629
:10373000481E0122824091B23E48008821EA0000E2
:10374000002801DD012070470020FCE700B503469A
:103750001846FFF7DBFF28B11846FFF7E8FF08B16E
:10376000012000BD0020FCE700B503461846FFF726
:10377000CDFF28B11846FFF7DAFF08B9012000BDD8
:103780000020FCE770B505462B48465D052D12D09C
:10379000062D16D0072D02D0082D18D105E0314690
:1037A0000020FFF7FAFE044613E031460120FFF740
:1037B000F4FE04460DE031460220FFF7EEFE04461B
:1037C00007E031460320FFF7E8FE044601E03046FB
:1037D00070BD00BF2046FBE770B505460C460020D3
:1037E00016490860322000F0E3F80120FFF774FD6D
:1037F0004220FFF771FD0020FFF76EFD2846FFF71E
:103800006BFD2046FFF768FD0020FFF765FD0020F7
:10381000FFF762FD0020FFF75FFD0020FFF75CFD72
:1038200001200749C1F8B801322000F0C1F870BD8D
:10383000A00000207C00002004010020B88121426B
:103840000080214201B901210A2900DD0A2181728B
:103850000023C372838101238373002203E00023CA
:103860008354531CDAB28A42F9DB70470246907BDC
:1038700008B9084670479089D37AD35CC01A908102
:10388000D07A1154908908449081D07A401CD0722B
:10389000D07A937A984201DB0020D0729089937A93
:1038A00090FBF3F0C0B2E5E770B501460023887BDA
:1038B00008B9002070BD00220EE08E5C551C4D5DE5
:1038C000741B002C01DB254600E06542E8B29842FB
:1038D00000DD0346501CC2B2887A401E9042ECDCE8
:1038E000052B01DA0120E5E70020E3E770B5044687
:1038F0000D4616460021284606F0ECFF00D20025B2
:103900004FF07E51284607F0E5F801D24FF07E5582
:103910002560304606F0CAFF60600120207270BD4D
:103920002DE9F04704460D46207A20B9284606F0D6
:10393000BDFFBDE8F087284606F0B8FF07464FF008
:103940007E50216807F0BAF98146616806F0F6FFFB
:1039500006463946206806F0F1FF8046314606F0FB
:10396000BDFD60606068E4E72DE9F04104460D4666
:10397000207A10B92846BDE8F0814FF087412068D1
:1039800006F0DCFF804606F059FF86B2606806F05C
:1039900055FF80B2C6F58071484306FB0507380A1B
:1039A00006F084FF6060606806F048FFC0B2E2E79E
:1039B00000EBC001C9004FF0E0225161002191618C
:1039C0000521116100BF4FF0E021096901F4803148
:1039D0000029F8D004214FF0E0221161704700B5B2
:1039E000034603E04FF47A70FFF7E2FF181EA3F1DD
:1039F0000103F7D100BD10B5044603E04FF47A701F
:103A0000FFF7EDFF201EA4F10104F7D110BD000067
:103A100008B501210C20FCF7B7FF10208DF803003A
:103A20003C20ADF8000003208DF8020069464148B3
:103A3000FCF7EEFC0320ADF8000069463E48FCF7B9
:103A4000E7FC08BD70B504460D461646002C0BDD9C
:103A5000A1B23A48FDF7C4FE04213648FCF785FDC3
:103A600008213448FCF783FD002D0BDDA9B2334853
:103A7000FDF7B8FE10212F48FCF777FD20212D48D7
:103A8000FCF775FD002E0BDDB1B22C48FDF7ACFE46
:103A900001212948FCF769FD02212748FCF767FD51
:103AA000002C0CDA604281B22448FDF799FE08210F
:103AB0002048FCF75AFD04211E48FCF758FD002D54
:103AC0000CDA684281B21D48FDF78CFE20211948AE
:103AD000FCF74BFD10211748FCF749FD002E0CDACE
:103AE000704281B21548FDF77FFE02211248FCF7B3
:103AF0003CFD01211048FCF73AFD3CB900210F487C
:103B0000FDF76EFE0C210B48FCF731FD3DB900219D
:103B10000A48FDF767FE30210648FCF728FD3EB94C
:103B200000210648FDF760FE03210348FCF71FFD56
:103B300070BD000000080140000C0140002C014055
:103B400030B589B005460C460121C802FCF71CFFC0
:103B500001210420FCF718FF4FF4E060ADF82000CD
:103B600018208DF8230003208DF8220008A9FE48B4
:103B7000FCF74EFCADF81850ADF814400020ADF83D
:103B80001A00ADF8160005A9F848FDF735F86020D1
:103B9000ADF804000120ADF806000020ADF80C00DF
:103BA00001A9F248FDF765F801A9F048FDF7A3F86F
:103BB00001A9EE48FDF7ECF80821EC48FDF7A8FC58
:103BC0000821EA48FDF7ADFC0821E848FDF7B6FCFE
:103BD0000121E648FDF76CFB0121E448FDF774FB89
:103BE00009B030BD0346934201DD104670478B4259
:103BF00001DA0846FAE71846F8E71FB501210C205C
:103C0000FCF7C2FE01210720FCF7CBFE04208DF853
:103C10000F0003208DF80E00ADF80C0003A9D24868
:103C2000FCF7F6FBC020ADF80C0003A9CE48FCF76A
:103C3000EFFBC020ADF80C0003A9CD48FCF7E8FB72
:103C40004FF6FF70ADF804000020ADF80000ADF8AD
:103C50000600ADF8020069464FF08040FCF7CCFF4B
:103C60006946C448FCF7C8FF6946C348FCF7C4FF6F
:103C700000231A4603214FF08040FDF7CCFB0023C0
:103C80001A460321BB48FDF7C6FB00231A46032151
:103C9000B948FDF7C0FB00214FF08040FDF79CFDC7
:103CA0000021B448FDF798FD0021B348FDF794FDCD
:103CB00001218807FDF7FCFA0121AE48FDF7F8FA6B
:103CC0000121AD48FDF7F4FA1FBD10B54FF080405B
:103CD000FDF7A5FD04B200214FF08040FDF77CFD0B
:103CE000A64800682044A5490860A54804802046ED
:103CF00010BD10B59F48FDF792FD04B200219D480C
:103D0000FDF76AFD9F48006820449E4908609E4870
:103D10000480204610BD10B59748FDF780FD04B221
:103D200000219548FDF758FD9848006820449749C0
:103D3000086097480480204610BD10B500214FF060
:103D40008040FDF749FD00218A48FDF745FD00212F
:103D50008948FDF741FD00208849086089490860CD
:103D60008A49086086490880874908808849088010
:103D700010BD10B1814B1B68036011B1814B1B68F2
:103D80000B6012B1814B1B681360704718B17C4BFC
:103D9000B3F90030038019B17B4BB3F900300B80CD
:103DA0001AB17B4BB3F900301380704710B5002176
:103DB0004FF08040FDF710FD00216E48FDF70CFD2F
:103DC00000216D48FDF708FD00206C4908606D4931
:103DD00008606E4908606A4908806B4908806C4930
:103DE00008806C4908606C4908606C49086010BD27
:103DF0002DE9F04F8BB006460C461546FFF765FFE0
:103E00000A90FFF776FF0990FFF785FF08900A995F
:103E1000701A06F033FD07900999601A06F02EFD1E
:103E200006900899681A06F029FD0746B6B9ACB99C
:103E3000A5B9FFF74AFFFFF75CFFFFF76CFF002013
:103E400054490860544908605449086000221146EA
:103E50001046FFF7F7FD0BB0BDE8F08F304606F0D7
:103E60000DFD4F49019006F069FD83464948016800
:103E70004C4806F063FD01904B48079906F05EFD43
:103E80000090019906F02AFB5946029006F026FBA5
:103E90008046204606F0F2FC4149019006F04EFDB6
:103EA00083463D4801683F4806F048FD01903E4882
:103EB000069906F043FD0090019906F00FFB594664
:103EC000029006F00BFB8146284606F0D7FC3449E9
:103ED000019006F033FD834630480168314806F012
:103EE0002DFD39460190304806F028FD00900199DB
:103EF00006F0F4FA5946029006F0F0FA82462B4991
:103F0000404606F0E7FD04D80021079806F0E2FDE0
:103F100015D32749404606F0DDFC04D80021079858
:103F200006F0D8FC0BD32349079806F007FD83461B
:103F300018480168584606F0D1FA164908601B492E
:103F4000484606F0C7FD04D80021069806F0C2FDD9
:103F50003ED31749484606F0BDFC04D80021069818
:103F600006F0B8FC34D327E000080140002C0140E3
:103F7000000C01400004004000080040B000002098
:103F8000BC000020B4000020BE000020B8000020CB
:103F9000C0000020A4000020A8000020AC000020E9
:103FA000000040410000344300005C420000E14555
:103FB0000000E1C50AD7233C6D49069806F0BEFC17
:103FC00083466C480168584606F088FA69490860DB
:103FD0006949504606F07EFD04D80021384606F0B7
:103FE00079FD15D36549504606F074FC04D80021CC
:103FF000384606F06FFC0BD35D49384606F09EFC50
:1040000083465F480168584606F068FA5C490860D4
:104010005C495D48006806F05DFD02D259485A4986
:1040200008605A495848006806F054FC02D25748C4
:104030005549086053494F48006806F04BFD02D2CD
:1040400050484C49086051494A48006806F042FC13
:1040500002D24E48474908604A494948006806F07C
:1040600039FD02D24748464908604849444800683B
:1040700006F030FC02D2454841490860304606F05F
:10408000FDFB4349019006F059FC83463E48016818
:10409000404806F053FC01903F48079906F04EFC5B
:1040A0000090019906F01AFA5946029006F016FAA5
:1040B0008046204606F0E2FB3549019006F03EFCC2
:1040C00083462C480168334806F038FC019032489A
:1040D000069906F033FC0090019906F0FFF9594665
:1040E000029006F0FBF98146284606F0C7FB2849F6
:1040F000019006F023FC029021480168254806F053
:104100001DFC39460190244806F018FC00900199E6
:1041100006F0E4F98346029906F0E0F9824640464B
:1041200006F046FB0590484606F042FB04905046D8
:1041300006F03EFB03904FF4E15251420598FFF721
:1041400051FD05904FF4E15251420498FFF74AFDAA
:1041500004904FF4E15251420398FFF743FD03905E
:10416000DDE903210598FFF76DFC00BF73E6000051
:104170000AD7233CA80000200000E1450000E1C56B
:10418000AC00002000009041A4000020000090C17D
:10419000000040410000344300005C4270B5064618
:1041A0000D4614462946304606F094FB01D22846B7
:1041B00070BD2146304606F08DFC01D22046F7E75F
:1041C0003046F5E770B504460021204606F082FB34
:1041D00001D8002070BD204605F0CAFF05462946DB
:1041E0004FF07E5006F0EEF9F4E710B5044604E017
:1041F000FE49204606F062FD0446FD49204606F0D1
:1042000069FCF5D304E0F949204606F067F9044655
:10421000F849204606F05EFBF5D3204610BD2DE997
:10422000F04104460F46002020606060A0604FF01F
:104230007E50E060002020616061A0614FF07E55FB
:10424000ED4E2946300706F079FBE0613146300734
:1042500006F074FB206200206062A062E062BDE8AC
:10426000F0810FB5A3B000212E9806F033FB01D8E2
:1042700027B000BDE149249806F060FB2290DF4999
:10428000259806F05BFB2190DC49269806F056FB4A
:1042900020902398C0681F90239800691E9023984F
:1042A00040691D90239880691C902A99084606F061
:1042B00045FB08902999084606F040FB069028998E
:1042C000084606F03BFB0590069906F007F90790B3
:1042D000089906F003F90990FFF774FF1B9000217D
:1042E0001B9806F0F7FB0ED21B99289806F026FBC8
:1042F00028901B99299806F021FB29901B992A9850
:1043000006F01CFB2A902D99084606F017FB089032
:104310002C99084606F012FB06902B99084606F0E9
:104320000DFB0590069906F0D9F80790089906F05C
:10433000D5F80990FFF746FF1B9000211B9806F067
:10434000C9FB0ED21B992B9806F0F8FA2B901B99FB
:104350002C9806F0F3FA2C901B992D9806F0EEFAA3
:104360002D901D991F9806F0E9FA05901C991E984A
:1043700006F0E4FA0490059906F0B0F806902D993D
:1043800006F0DCFA08901C991F9806F0D7FA039003
:10439000DDE91D1006F0D2FA0290039906F08EFCBA
:1043A00004902C9906F0CAFA06901C99084606F06B
:1043B000C5FA03901D99084606F0C0FA4FF07C51EB
:1043C000019006F0E9FB0290039906F077FC049057
:1043D0002B9906F0B3FA0590069906F07FF807903E
:1043E000089906F07BF84FF08041099006F0A6FA94
:1043F0001A90DDE91E1006F0A1FA0590DDE91C1007
:1044000006F09CFA0490059906F058FC06902D9948
:1044100006F094FA08901C99084606F08FFA03906B
:104420001E99084606F08AFA4FF07C51019006F07A
:10443000B3FB0290039906F041FC04902C9906F01E
:104440007DFA06901C991F9806F078FA0390DDE932
:104450001D1006F073FA0290039906F03FF80490DD
:104460002B9906F06BFA0590069906F037F807903D
:10447000089906F033F84FF08041099006F05EFA93
:1044800019901999084606F059FA08901A990846A1
:1044900006F054FA0790089906F020F8099005F004
:1044A00067FE18901D99084606F048FA05901E9977
:1044B000084606F043FA4FF07C51039006F06CFB7F
:1044C0000490059906F0FAFB06902D9906F036FA4D
:1044D0000890DDE91E1006F031FA0390DDE91C10AA
:1044E00006F02CFA0290039905F0F8FF04902C993D
:1044F00006F024FA06901D991F9806F01FFA039003
:104500001C991E9806F01AFA0290039906F0D6FB41
:1045100004902B9906F012FA0590069905F0DEFF3B
:104520000790089905F0DAFF4FF08041099006F0F6
:1045300005FA17901D991F9806F000FA08901C992B
:104540001E9806F0FBF90790089906F0B7FB4FF0AC
:104550008041099006F0F2F91690DDE91C1006F092
:10456000EDF90890DDE91E1006F0E8F907900899CA
:1045700005F0B4FF4FF08041099006F0DFF9159087
:104580001C99084606F0DAF909901D99084606F0CC
:10459000D5F907901E99084606F0D0F905901F99A5
:1045A000084606F0CBF90490059906F087FB0690C3
:1045B000079906F083FB0890099905F08FFF149086
:1045C0001D991F9806F0BAF905901C991E9806F0DF
:1045D000B5F90490059906F071FB07904FF0804003
:1045E000179906F0ABF90690079909E0DB0FC9406F
:1045F000DB0F4940DB0F49C014AE073F35FA8E3C54
:1046000006F09CF909901C99084606F097F9059068
:104610001D99084606F092F94FF07C51039006F080
:10462000BBFA0490059906F049FB07904FF08040D3
:10463000189906F083F90690079906F07FF908901B
:10464000099905F04BFF1390DDE91C1006F076F98F
:104650000590DDE91E1006F071F90490059905F04A
:104660003DFF07904FF08040179906F067F90690DC
:10467000079906F063F909901C991F9806F05EF9F6
:104680000590DDE91D1006F059F90490059906F032
:1046900015FB07904FF08040189906F04FF90690EF
:1046A000079906F04BF90890099905F017FF129049
:1046B0001D99084606F042F905901E99084606F035
:1046C0003DF94FF07C51039006F066FA049005998D
:1046D00006F0F4FA07904FF08040179906F02EF993
:1046E0000690079906F02AF909901C991E9806F081
:1046F00025F905901D991F9806F020F90490059959
:1047000005F0ECFE07904FF08040189906F016F97E
:104710000690079906F012F90890099905F0DEFE57
:10472000119012992D9806F009F9079011992C987B
:1047300006F004F90690079906F0C0FA0990159959
:104740002A9806F0FBF807901499299806F0F6F8D5
:104750000690079906F0B2FA0890099905F0BEFE96
:10476000109011992B9806F0E9F8079013992D985D
:1047700006F0E4F80690079906F0A0FA099014995B
:10478000289806F0DBF8079016992A9806F0D6F8D4
:104790000690079906F092FA0890099905F09EFE96
:1047A0000F9013992C9806F0C9F8079012992B983E
:1047B00006F0C4F80690079906F080FA0990169959
:1047C000299806F0BBF807901599289806F0B6F8D6
:1047D0000690079906F072FA0890099905F07EFE96
:1047E0000E902398006A0021099006F073F96CD2AC
:1047F0000E9820F0004008900F9820F0004006909E
:10480000109820F000400590069905F067FE07908B
:10481000089905F063FEFE49099006F05BF954D251
:104820002398006A0790109906F088F808902E994E
:1048300006F084F809902398406A01460890099888
:1048400005F04CFE239948622398006A07900F995F
:1048500006F074F808902E9906F070F809902398E5
:10486000806A01460890099805F038FE239988620D
:104870002398006A07900E9906F060F808902E9928
:1048800006F05CF809902398C06A014608900998E0
:1048900005F024FE2399C8622398406A01460990D6
:1048A000229805F01BFE22902398806A0146099009
:1048B000219805F013FE21902398C06A01460990C3
:1048C000209805F00BFE209006E00021239841621D
:1048D000239881622398C1622398C0690890109937
:1048E00006F02CF80990229905F0F8FD2290239803
:1048F000C06908900F9906F021F80990219905F0F8
:10490000EDFD21902398C06908900E9906F016F8E5
:104910000990209905F0E2FD20904FF07C502E99EF
:1049200006F00CF80D901F980C901E980B901D9897
:104930000A9020991C9806F001F8079021990A988E
:1049400005F0FCFF05900B9880F000400390229941
:1049500005F0F4FF0490059906F0B0F90690079968
:1049600006F0ACF908900D9905F0E8FF09901F9941
:1049700005F0B4FD1F9021991C9805F0DFFF07900A
:1049800020990A9805F0DAFF059022990C9805F015
:10499000D5FF0490059905F0A1FD0690079906F052
:1049A0008DF908900D9905F0C9FF09901E9905F041
:1049B00095FD1E9022991C9805F0C0FF0790209944
:1049C0000B9805F0BBFF059021990C9805F0B6FFF8
:1049D0000490059906F072F90690079905F07EFD9E
:1049E00008900D9905F0AAFF09901D9905F076FD34
:1049F0001D9022990A9805F0A1FF079021990B9824
:104A000005F09CFF059020990C9805F097FF049005
:104A1000059905F063FD0690079906F04FF9089097
:104A20000D9905F08BFF09901C9905F057FD1C901E
:104A30001C99084605F082FF08901D99084605F06C
:104A40007DFF06901E99084605F078FF04901F9997
:104A5000084605F073FF0390049905F03FFD0590AB
:104A6000069905F03BFD0790089905F037FD099080
:104A7000FFF7A8FB1B9000211B9806F02BF813D220
:104A80001B991F9805F05AFF1F901B991E9805F05F
:104A900055FF1E901B991D9805F050FF1D90DDE9F4
:104AA0001B1005F04BFF1C9023991F98C860239999
:104AB0001E98086123991D98486123991C98886164
:104AC0001D99084605F03AFF05901E99084605F025
:104AD00035FF0490059905F001FD4FF080410690E7
:104AE00005F02CFF4FF07E51079006F055F8099025
:104AF000DDE91C1005F022FF0690DDE91E1005F02F
:104B00001DFF0590069905F0E9FC4FF080410790E4
:104B100005F014FF0890099904F004FD239908603A
:104B20001E991C9805F00AFF06901D991F9805F024
:104B300005FF0590069906F0C1F84FF080410790F7
:104B400005F0FCFE4FF07E5232490890FFF726FB3D
:104B5000099004F055FC239948601C99084605F01B
:104B6000EDFE05901D99084605F0E8FE04900599B4
:104B700005F0B4FC4FF08041069005F0DFFE4FF0E9
:104B80007E51079006F008F80990DDE91D1005F048
:104B9000D5FE06901C991F9805F0D0FE0590069949
:104BA00005F09CFC4FF08041079005F0C7FE08908F
:104BB000099904F0B7FC23998860239880680990CC
:104BC000FFF713FB2399886000BFFFF751BB2DE966
:104BD000F04104460D4616461F460F49206805F071
:104BE000ADFE80460D4905F0EDFC28600A4960687D
:104BF00005F0A4FE8046094905F0E4FC3060064952
:104C0000A06805F09BFE8046044905F0DBFC07E048
:104C100095BFD633000080BF00003443DB0F49400E
:104C20003860BDE8F08100000346934201DD104684
:104C300070478B4201DA0846FAE71846F8E710B5E4
:104C400086B0044601218804FBF7ABFE0121082051
:104C5000FBF79AFE18208DF817004FF48060ADF82E
:104C6000140003208DF8160005A9FD48FBF7D0FBC2
:104C700048208DF817004FF40060ADF8140005A926
:104C8000F748FBF7C5FB01940020ADF810000C209D
:104C9000ADF80E000020ADF80C00ADF80A00ADF83C
:104CA000080001A9EF48FCF724FE012240F225513B
:104CB000EC48FCF7B6FE27208DF8000001208DF8A7
:104CC00001008DF802008DF803006846FBF7D7FA63
:104CD0000121E448FCF799FE06B010BD10B504466A
:104CE0002146E048FCF7FEFE00BF8021DD48FCF7CE
:104CF00067FF0028F9D010BD70B50446002504E018
:104D0000605DFFF7EBFF681C85B2605D0028F7D19E
:104D100070BD00BF704770B504460D4600BFE0B2DD
:104D2000FFF7DCFF204670BD0FB400B5C1B043A84B
:104D300000904FF4807101A8009B429A01F02CFD75
:104D40000020009001A8FFF7D7FF41B05DF814FBE9
:104D50000D2800D170470A280ED1C349097851B1F6
:104D60000021C24AC04B1B78D1540121C04A1170A6
:104D70000021BD4A1170EDE7BD49097801B1E9E7AD
:104D8000B94909782F2907D2B74A11784A1CB64B7E
:104D90001A70B64A505402E00021B34A117000BFA5
:104DA000D8E70020B3490870B3490870B3490870C8
:104DB000B3490870B3490870704701B596B01698AA
:104DC00010B11698007808B917B000BD1698007891
:104DD000532803D016980078732802D1FFF7E1FF1B
:104DE000F2E716980078452803D0169800786528D1
:104DF00005D1FFF7D6FF0120A3490870E4E7169814
:104E00000078482803D016980078682805D1FFF765
:104E1000C8FF01209D490870D6E7169800785128F0
:104E200003D016980078712803D1012098490870A2
:104E3000CAE711AA97A1169801F0C8FC01280CD165
:104E4000119808B1012000E000209449087008463C
:104E5000007808B9FFF7A5FFB6E711AA90A1169848
:104E600001F0B4FC012808D1642200211198FFF759
:104E7000DBFE00B28C490880A6E710AA8BA1169829
:104E800001F0A4FC012823D19DF840004F2803D055
:104E90009DF840006F2803D164208349088016E004
:104EA0009DF84000432803D09DF84000632803D1BB
:104EB00000207D4908800AE09DF84000532803D077
:104EC0009DF84000732802D13220774908807BE7A3
:104ED00012A813AB14AA77A10090169801F076FCE3
:104EE00003281ED1642251421498FFF79DFE40B260
:104EF00060490870642251421398FFF795FE40B252
:104F00005D490870642251421298FFF78DFE40B24D
:104F10005A49087014205A490870002059490870ED
:104F200052E70DA80EAB0FAA65A10090169801F0EC
:104F30004DFC03280FD165490F98086064490E980D
:104F4000086064490D98086001204E4908701420DB
:104F50004B49087038E716980078522816D11698F1
:104F6000407818B1169840782C280FD100200F9067
:104F70000E900D900DAA0EA90FA8FEF7FAFE56A0EE
:104F8000DDE90D320F99FFF7CFFE1DE71698007887
:104F90004B2863D1169840782C28FAD11698801C9B
:104FA0000F9000200E900D900C900A9002E00F9848
:104FB000401C0F900F9800782028F8D012E00F982E
:104FC00000783038069005F059FC484908900E9852
:104FD00005F0B4FC0790089905F080FA0E900F9840
:104FE000401C0F900F980078302803DB0F98007852
:104FF0003928E4DD0F9800782E2824D10F98401C22
:105000000F903B480B9016E00F98007830380690D0
:1050100005F034FC07900B9905F090FC08900E9970
:1050200005F05CFA0E9032490B9805F087FC0B9066
:105030000F98401C0F900F980078302803DB0F98D2
:1050400000783928E0DD0F9800782C2805D10F98DA
:10505000401C0F900A98401C0A904EE033E100007B
:10506000000C014000480040C40000204E01002018
:10507000C5000020C6000020C7000020C800002096
:10508000C9000020E0000020CC000020D00000205B
:10509000D1000020412C256400000000CB0000203E
:1050A000472C256400000000CE000020472C25631B
:1050B000000000004A2C25642C25642C2564000087
:1050C0004C2C25662C25662C25660000D40000207B
:1050D000D8000020DC000020454E432C256C642CB9
:1050E000256C642C256C640D0A0000000000204132
:1050F000CDCCCC3D0F98401C0F900F980078202805
:10510000F8D012E00F9800783038069005F0B6FB22
:10511000FE4908900D9805F011FC0790089905F0DC
:10512000DDF90D900F98401C0F900F9800783028F3
:1051300003DB0F9800783928E4DD0F9800782E28DB
:1051400024D10F98401C0F90F1480B9016E00F9857
:1051500000783038069005F091FB07900B9905F028
:10516000EDFB08900D9905F0B9F90D90E8490B9801
:1051700005F0E4FB0B900F98401C0F900F980078FF
:10518000302803DB0F9800783928E0DD0F9800788D
:105190002C2805D10F98401C0F900A98401C0A90AB
:1051A00002E00F98401C0F900F9800782028F8D04C
:1051B00012E00F9800783038069005F05FFBD34975
:1051C00008900C9805F0BAFB0790089905F086F94D
:1051D0000C900F98401C0F900F980078302803DB3C
:1051E0000F9800783928E4DD0F9800782E2824D114
:1051F0000F98401C0F90C6480B9016E00F9800784F
:105200003038069005F03AFB07900B9905F096FBB5
:1052100008900C9905F062F90C90BD490B9805F0C7
:105220008DFB0B900F98401C0F900F980078302842
:1052300003DB0F9800783928E0DD0A98022841DB6B
:105240000C9805F0B5FA099000210E9805F042FC83
:1052500007D2B0490E9805F03DFB02D8AE490E9832
:10526000086000210D9805F035FC07D2AB490D9878
:1052700005F030FB02D8AA490D980860099800286B
:1052800007DD42F210710998884202DCA5490998AD
:105290000860A348006805F0F5F8CDE906019E48CE
:1052A000006805F0EFF8CDE904019E48006802901F
:1052B000DDE90601CDE900019BA0DDE90423FFF74C
:1052C00033FD81E500BF169800784D287ED11698F1
:1052D00040782C28FAD11698801C0F9000200E9050
:1052E0000D900C900A9002E00F98401C0F900F98C0
:1052F00000782028F8D012E00F9800783038079016
:1053000005F0BCFA814909900E9805F017FB08904A
:10531000099905F0E3F80E900F98401C0F900F9834
:105320000078302803DB0F9800783928E4DD0F98E7
:1053300000782E2824D10F98401C0F9074480B90B1
:1053400016E00F9800783038079005F097FA08902B
:105350000B9905F0F3FA09900E9905F0BFF80E903D
:105360006B490B9805F0EAFA0B900F98401C0F90D0
:105370000F980078302803DB0F9800783928E0DD9B
:105380000F9800782C2805D10F98401C0F900A9890
:10539000401C0A9002E00F98401C0F900F98007874
:1053A0002028F8D014E00F9800783038079005F0E6
:1053B00065FA564909900D9805F0C0FA08900999C8
:1053C00005F08CF80D900F98401C00E0F1E00F9074
:1053D0000F980078302803DB0F9800783928E2DD39
:1053E0000F9800782E2824D10F98401C0F90484821
:1053F0000B9016E00F9800783038079005F03EFAD1
:1054000008900B9905F09AFA09900D9905F066F845
:105410000D903F490B9805F091FA0B900F98401CA6
:105420000F900F980078302803DB0F980078392808
:10543000E0DD0F9800782C2805D10F98401C0F90C4
:105440000A98401C0A9002E00F98401C0F900F9899
:1054500000782028F8D012E00F98007830380790B4
:1054600005F00CFA294909900C9805F067FA0890A4
:10547000099905F033F80C900F98401C0F900F9885
:105480000078302803DB0F9800783928E4DD0F9886
:1054900000782E2824D10F98401C0F901C480B90A8
:1054A00016E00F9800783038079005F0E7F908907B
:1054B0000B9905F043FA09900C9905F00FF80C9040
:1054C00013490B9805F03AFA0B900F98401C0F9077
:1054D0000F980078302803DB0F9800783928E0DD3A
:1054E0000A98022864DB00210E9805F0F3FA08D22E
:1054F0004FF07E510E9805F0EDF902D80F490E9845
:10550000086000210D9805F0E5FA19E0000020413F
:10551000CDCCCC3D00007A4434000020000048424D
:10552000380000203C0000204B5F4F4B2C252E31D3
:10553000662C252E31662C25640D0A0040000020C3
:1055400008D24FF07E510D9805F0C4F902D8F94900
:105550000D98086000210C9805F0BCFA08D24FF0B5
:105560007E510C9805F0B6F902D8F3490C98086002
:10557000F148006804F086FFCDE90801ED480068B5
:1055800004F080FFCDE90601EC48006804F07AFFE2
:10559000CDE90401DDE90801CDE90201DDE90601FB
:1055A000CDE90001E6A0DDE90423FFF7BDFB0BE434
:1055B00000BF169800785A287ED1169840782C287B
:1055C000FAD11698801C0F9000200E900D900C9030
:1055D0000A9002E00F98401C0F900F980078202846
:1055E000F8D012E00F9800783038079005F046F9AF
:1055F000D94909900E9805F0A1F90890099904F08D
:105600006DFF0E900F98401C0F900F980078302877
:1056100003DB0F9800783928E4DD0F9800782E28F6
:1056200024D10F98401C0F90CC480B9016E00F9897
:1056300000783038079005F021F908900B9905F0B3
:105640007DF909900E9904F049FF0E90C3490B981B
:1056500005F074F90B900F98401C0F900F9800788C
:10566000302803DB0F9800783928E0DD0F980078A8
:105670002C2805D10F98401C0F900A98401C0A90C6
:1056800002E00F98401C0F900F9800782028F8D067
:1056900014E00F9800783038079005F0EFF8AE4925
:1056A00009900D9805F04AF90890099904F016FF41
:1056B0000D900F98401C00E0D3E00F900F980078F9
:1056C000302803DB0F9800783928E2DD0F98007846
:1056D0002E2824D10F98401C0F90A0480B9016E064
:1056E0000F9800783038079005F0C8F808900B99AB
:1056F00005F024F909900D9904F0F0FE0D909749FA
:105700000B9805F01BF90B900F98401C0F900F9809
:105710000078302803DB0F9800783928E0DD0F98F7
:1057200000782C2805D10F98401C0F900A98401C37
:105730000A9002E00F98401C0F900F9800782028E4
:10574000F8D012E00F9800783038079005F096F8FE
:10575000814909900C9805F0F1F80890099904F036
:10576000BDFE0C900F98401C0F900F9800783028C9
:1057700003DB0F9800783928E4DD0F9800782E2895
:1057800024D10F98401C0F9074480B9016E00F988E
:1057900000783038079005F071F808900B9905F003
:1057A000CDF809900C9904F099FE0C906B490B9878
:1057B00005F0C4F80B900F98401C0F900F980078DC
:1057C000302803DB0F9800783928E0DD0A9802289A
:1057D00046DB00210E9805F07DF907D860490E9848
:1057E00005F078F802D85F490E98086000210D98FE
:1057F00005F070F907D85A490D9805F06BF802D8F2
:1058000059490D98086000210C9805F063F907D8F4
:1058100053490C9805F05EF802D854490C9808607A
:105820005248006804F02EFECDE908014E48006899
:1058300004F028FECDE906014A48006804F022FE83
:10584000CDE90401DDE90801CDE90201DDE9060148
:10585000CDE9000146A0DDE90423FFF765FA30E554
:1058600000BF10AA48A1169800F0B0FF012803D18C
:105870009DF840004649087000BF22E510B58CB085
:105880004448007808B90CB010BD002240F2255100
:105890004148FCF7C6F8002409E04048005D0DF8D7
:1058A00004001DF8040000B903E0601CC4B2302CF1
:1058B000F3D300BF00208DF82F0036490870012275
:1058C00040F225513448FCF7ACF86846FFF775FA0A
:1058D00000BFD8E73248007820B131480078401E38
:1058E0002F490870704703460BB101B10AB9002077
:1058F00070472B48007808B90020F9E7294890F94B
:1059000000001870284890F900000870274890F9A6
:10591000000010700120EBE71D49087800211C4AA7
:1059200011707047224991F90000FF21204A11703F
:105930007047000044000020480000204000002084
:105940004D5F4F4B2C252E36662C252E36662C258A
:105950002E36660D0A00000000002041CDCCCC3D63
:105960000000FA43280000202C0000203000002016
:105970005A5F4F4B2C252E31662C252E31662C2557
:105980002E31660D0A000000502C25630000000037
:10599000CA000020C5000020004800404E01002041
:1059A000C9000020C6000020C7000020C800002059
:1059B000CB000020194908780021184A117070475F
:1059C0001749B1F900004FF0FF31154A11807047B7
:1059D000144908780021134A117070471249087859
:1059E0000021114A1170704710B503460BB101B187
:1059F0000AB9002010BD0D48007808B90020F9E769
:105A00000B48006818600B48006808600A48006886
:105A100010600020054C20700120EBE7CC00002036
:105A2000CE000020D0000020D1000020E0000020A7
:105A3000D4000020D8000020DC00002010B5042095
:105A4000FDF7B6FF10BD70B504460D46FD4A02EBEA
:105A500004129188FB4A02EB041210682A46FAF7F6
:105A600088FD70BD70B504460D46F64A02EB04127F
:105A70009189F44A02EB041290682A46FAF779FDFC
:105A800070BD10B50446EF4A02EB04129189ED4A4D
:105A900002EB04129068FAF74EFD10BD10B50446F3
:105AA00001212046FFF7DEFF01212046FFF7CBFF53
:105AB000FFF7C4FF00212046FFF7D4FFFFF7BEFF2A
:105AC00000212046FFF7BFFFFFF7B8FF10BD10B55C
:105AD000044600212046FFF7C5FFFFF7AFFF012175
